S01700004763634170706C69636174696F6E312E737265635B
S11300000C9434000C9405020C94AF000C94510031
S11300100C9451000C9451000C9451000C94510018
S11300200C9451000C9451000C9451000C94510008
S11300300C9451000C9451000C9451000C945100F8
S11300400C9451000C9451000C9451000C945100E8
S11300500C9451000C9451000C9451000C945100D8
S11300600C9451000C94510011241FBECFEFD8E022
S1130070DEBFCDBF12E0A0E0B1E0EEEFFEE002C0D3
S113008005900D92A632B107D9F722E0A6E2B2E0BC
S113009001C01D92AB38B207E1F70E9432050C94FF
S11300A07D070C9400002A988EBD0DB407FEFDCF89
S11300B06EBD0DB407FEFDCF2A9A089529988FE9E5
S11300C09FE00197F1F700C00000299A8FE99FE0B3
S11300D00197F1F700C0000029980895CF93C82F25
S11300E02898807F86958695836088B90E945E00F3
S11300F0CF70CC0FCC0FC360C8B90E945E008FE3F1
S11301009FE10197F1F700C00000CF910895CF93CC
S1130110C82F289A807F86958695836088B90E9427
S11301205E00CF70CC0FCC0FC360C8B90E945E00D4
S11301308FE39FE10197F1F700C00000CF9108958C
S1130140CF93DF93EC018881882331F021960E94BC
S1130150870089918111FBCFDF91CF9108951F9280
S11301600F920FB60F9211242F933F934F935F93E7
S11301706F937F938F939F93AF93BF93EF93FF936B
S1130180809126028095809326028F3FB1F481E00E
S11301900E946E0080E80E946E00809127028130E8
S11301A029F480E091E00E94A00013C081E191E075
S11301B00E94A000109226020CC081110AC081E0A6
S11301C00E946E0080E80E946E0082E291E00E942C
S11301D0A000E19A2FEF89E698E1215080409040F9
S11301E0E1F700C00000FF91EF91BF91AF919F91A3
S11301F08F917F916F915F914F913F912F910F90CC
S11302000FBE0F901F9018958FE59AEE0197F1F7A6
S113021000C000008FE30E946E008FE19EE401970E
S1130220F1F700C000008FE30E946E008FE99FE0A9
S11302300197F1F700C000008FE30E946E0082E096
S11302400E946E0088E20E946E0088E00E946E00A8
S113025081E00E946E0086E00E946E008CE00E94A5
S11302606E0080E80E946E000895ECE7F0E0908153
S1130270907F8F70892B8083EAE7F0E0808180642F
S11302808083808184FFFDCFEAE7F0E08081806194
S11302908083609178008091790070E0782B072E3C
S11302A0000C880B990B0E944C0608950F931F9322
S11302B0CF93DF93813079F580918602E82FF0E0C7
S11302C0EE0FFF1FEE0FFF1FEF5CFD4F4091870203
S11302D0509188026091890270918A02408351830F
S11302E0628373838F5F8A3019F08093860202C021
S11302F010928602C1E3D2E009E512E060E070E00A
S1130300CB0129913991499159910E943805C0171F
S1130310D107B9F734C0823079F580918102E82F92
S1130320F0E0EE0FFF1FEE0FFF1FE75AFD4F409165
S11303302D0250912E0260912F0270913002408361
S11303405183628373838F5F8A3019F080938102B3
S113035002C010928102C9E5D2E001E812E060E037
S113036070E0CB0129913991499159910E94380546
S1130370C017D107B9F703C060E070E0CB0120E0FB
S113038030E040E251E40E94A905DF91CF911F9132
S11303900F910895CF92DF92EF92FF9280E00E9436
S11303A035016B017C016091280270E080E090E0EF
S11303B00E944C0622E539E44DE95BE30E94010703
S11303C0A70196010E94010760932D0270932E02EB
S11303D080932F029093300282E00E945601609332
S11303E082027093830280938402909385022FEF9C
S11303F080E792E0215080409040E1F700C0000087
S1130400FF90EF90DF90CF9008951F920F920FB658
S11304100F9211242F933F934F935F936F937F9386
S11304208F939F93AF93BF93CF93EF93FF93809159
S113043026028F3FD9F481E00E946E0080E80E947A
S11304406E008FE291E00E94A00080EC0E946E009A
S113045080E491E00E94A0002FEF89E698E121500A
S113046080409040E1F700C000003EC08091280227
S11304708F5F809328028430C8F181E08093280242
S113048062E481E10E94530081E00E946E0080E8F2
S11304900E946E0089E491E00E94A0001DC065E9FD
S11304A081E10E94530081E00E946E0080E80E9476
S11304B06E008AE591E00E94A0000EC06BEE81E11F
S11304C00E94530081E00E946E0080E80E946E004A
S11304D08BE691E00E94A000CAE00E94CA01C150CC
S11304E0E1F781E080932702E09A07C08230B9F2F5
S11304F0833021F3813081F7C3CFFF91EF91CF9106
S1130500BF91AF919F918F917F916F915F914F9127
S11305103F912F910F900FBE0F901F90189581E07F
S11305200E94350120E030E040E054E40E943705A9
S113053024E63DE54CED5CE30E94010760938702ED
S1130540709388028093890290938A0281E00E94CA
S113055056016093290270932A0280932B02909390
S11305602C020895CF92DF92EF92FF92809126029F
S113057081111FC081E00E946E0080E80E946E001D
S11305808CE791E00E94A00082E891E00E94A00024
S113059085EC0E946E008EE891E00E94A0002FEF8F
S11305A089EF90E0215080409040E1F700C00000C6
S11305B015C18F3F09F012C180912702813009F0E3
S11305C00DC10E946E0080E80E946E008AE991E0ED
S11305D00E94A0002FEF83EC99E0215080409040CE
S11305E0E1F700C0000081E00E946E0080E80E94F4
S11305F06E006091280270E080E090E00E944C065A
S11306009B01AC016091820270918302809184020B
S1130610909185020E94A9056B017C0120E030E0E5
S113062040E85FE30E94A4051816C4F05D9A82EACC
S113063091E00E94A0002FEF89EF90E021508040CC
S11306409040E1F700C0000080EC0E946E0083EB54
S113065091E00E94A0000E94CA01C0C020E030E0E6
S113066040E450E4C701B6010E94A4051816C4F082
S11306705D9A84EC91E00E94A0002FEF89EF90E056
S1130680215080409040E1F700C0000080EC0E94BF
S11306906E0085ED91E00E94A0000E94CA019EC0F8
S11306A023E333E343E850E4C701B6010E94A40501
S11306B08823F4F581E00E946E0080E80E946E00B9
S11306C083EE91E00E94A0002FEF83EC99E021508B
S11306D080409040E1F700C000008BB18F798BB966
S11306E00E94CA010E948F0280912602811104C0D7
S11306F08BB180668BB972C06091280270E080E093
S113070090E00E944C069B01AC01609182027091C2
S1130710830280918402909185020E94A90523E3BB
S113072033E343E850E40E94A40588231CF256C036
S113073023E333E343E850E4C701B6010E94FC0617
S1130740181614F14BC081E00E946E0080E80E94EC
S11307506E008BEE91E00E94A0002FEF83EC99E0F5
S1130760215080409040E1F700C000005E9A5D98FF
S11307700E94CA010E948F0280912602811104C046
S11307808BB180668BB91BC06091280270E080E059
S113079090E00E944C069B01AC0160918202709132
S11307A0830280918402909185020E94A90526E625
S11307B036E646E850E40E94A405882324F281E04A
S11307C00E946E0080E80E946E0083EF91E00E9418
S11307D0A00010922602109228025D9AFF90EF90DA
S11307E0DF90CF900895CF938CE387B98FE284B9DB
S11307F080E78AB9C3E0C8B98BB98BB18C608BB977
S11308000E94040184E092E00E94A0002FEF89E698
S113081098E1215080409040E1F700C000007894B6
S113082080E480937C0087E880937A00C0937E0004
S1130830CDBB8AE08093690082E58CBD1DBC2A9AF9
S1130840CF9108958F929F92AF92BF92CF92DF92F1
S1130850EF92FF921F93CF93DF9300D000D0CDB7D8
S1130860DEB720E030E048EC52E4609182027091FF
S1130870830280918402909185020E9401070E9464
S11308801B066B017C01FB01F695E795F695E79550
S11308909F01ABE7B4E10E946E07AC015695479502
S11308A014E6149FC001159F900D1124A601481B46
S11308B0590B0E946E0796958795805D89838EE219
S11308C08A839A01ADECBCEC0E946E0796958795DD
S11308D0969587959695879520E3280F2B839C0101
S11308E0220F331F880F991F880F991F880F991F94
S11308F0820F931F481B590B405D4C8380EC0E9470
S11309006E00CE0101960E94A00082E192E00E9456
S1130910A00020E030E04AE754E46091290270919D
S11309202A0280912B0290912C020E9401070E94BE
S11309301B064B015C016B01D694C794D694C794F3
S1130940D694C7949601A5ECB0E20E946E07FC0110
S1130950F295E295EF70EF27FF70EF2728EE33E072
S1130960E29FC001E39F900DF29F900D1124F401CA
S1130970E81BF90B7F01F694E794F694E79497014A
S1130980ABE7B4E10E946E07AC0156954795149FFE
S1130990C001159F900D1124AF01481B590B9601FE
S11309A0A5ECB0E20E946E07929582958F7089271C
S11309B09F708927805D89839701ABE7B4E10E942A
S11309C06E0796958795805D8A839A01ADECBCECA1
S11309D00E946E0796958795969587959695879527
S11309E020E3280F2B839C01220F331F880F991FAC
S11309F0880F991F880F991F820F931F481B590B4B
S1130A00405D4C8388EC0E946E00CE0101960E94EA
S1130A10A00086E192E00E94A0000E94B20281E060
S1130A200E946E0080E80E946E008BE192E00E94BA
S1130A30A0002FEF83EC99E0215080409040E1F733
S1130A4000C000000F900F900F900F90DF91CF9196
S1130A501F91FF90EF90DF90CF90BF90AF909F9049
S1130A608F9008950E94F3030E942204FDCF5058F2
S1130A70BB27AA270E944F050C94C2060E94B40605
S1130A8038F00E94BB0620F039F49F3F19F426F495
S1130A900C94B1060EF4E095E7FB0C94AB06E92F39
S1130AA00E94D30658F3BA176207730784079507A1
S1130AB020F079F4A6F50C94F5060EF4E0950B2ECF
S1130AC0BA2FA02D0B01B90190010C01CA01A0019C
S1130AD01124FF27591B99F0593F50F4503E68F1F7
S1130AE01A16F040A22F232F342F4427585FF3CF38
S1130AF0469537952795A795F0405395C9F77EF409
S1130B001F16BA0B620B730B840BBAF09150A1F051
S1130B10FF0FBB1F661F771F881FC2F70EC0BA0FD7
S1130B20621F731F841F48F4879577956795B7955F
S1130B30F7959E3F08F0B0CF9395880F08F099275A
S1130B40EE0F9795879508950E94870608F481E033
S1130B5008950E94BD050C94C2060E94BB0658F07D
S1130B600E94B40640F029F45F3F29F00C94AB06D0
S1130B7051110C94F6060C94B1060E94D30668F346
S1130B809923B1F3552391F3951B550BBB27AA2742
S1130B9062177307840738F09F5F5F4F220F331F7C
S1130BA0441FAA1FA9F335D00E2E3AF0E0E832D044
S1130BB091505040E695001CCAF72BD0FE2F29D047
S1130BC0660F771F881FBB1F261737074807AB0719
S1130BD0B0E809F0BB0B802DBF01FF2793585F4F8E
S1130BE03AF09E3F510578F00C94AB060C94F6064F
S1130BF05F3FE4F3983ED4F3869577956795B79570
S1130C00F7959F5FC9F7880F911D9695879597F97A
S1130C100895E1E0660F771F881FBB1F62177307F3
S1130C208407BA0720F0621B730B840BBA0BEE1F08
S1130C3088F7E09508950E94DB0688F09F5798F0A6
S1130C40B92F9927B751B0F0E1F0660F771F881FCD
S1130C50991F1AF0BA95C9F714C0B13091F00E94E7
S1130C60F506B1E008950C94F506672F782F8827D0
S1130C70B85F39F0B93FCCF3869577956795B3950E
S1130C80D9F73EF490958095709561957F4F8F4F7D
S1130C909F4F0895E89409C097FB3EF49095809582
S1130CA0709561957F4F8F4F9F4F9923A9F0F92F2E
S1130CB096E9BB279395F695879577956795B795AC
S1130CC0F111F8CFFAF4BB0F11F460FF1BC06F5F92
S1130CD07F4F8F4F9F4F16C0882311F096E911C0A4
S1130CE0772321F09EE8872F762F05C0662371F0C5
S1130CF096E8862F70E060E02AF09A95660F771FD9
S1130D00881FDAF7880F9695879597F90895990FB4
S1130D100008550FAA0BE0E8FEEF16161706E807C1
S1130D20F907C0F012161306E407F50798F0621BE2
S1130D30730B840B950B39F40A2661F0232B242BB7
S1130D40252B21F408950A2609F4A140A6958FEFD6
S1130D50811D811D089597F99F6780E870E060E028
S1130D6008959FEF80EC089500240A941616170640
S1130D7018060906089500240A9412161306140688
S1130D8005060895092E0394000C11F4882352F0EB
S1130D90BB0F40F4BF2B11F460FF04C06F5F7F4FA3
S1130DA08F4F9F4F089557FD9058440F551F59F08A
S1130DB05F3F71F04795880F97FB991F61F09F3F44
S1130DC079F087950895121613061406551FF2CF6D
S1130DD04695F1DF08C0161617061806991FF1CFBD
S1130DE086957105610508940895E894BB276627E4
S1130DF07727CB0197F908950E94870608F48FEFAF
S1130E0008950E9414070C94C2060E94B40638F098
S1130E100E94BB0620F0952311F00C94AB060C94B1
S1130E20B10611240C94F6060E94D30670F3959F24
S1130E30C1F3950F50E0551F629FF001729FBB27CD
S1130E40F00DB11D639FAA27F00DB11DAA1F649F69
S1130E506627B00DA11D661F829F2227B00DA11D1C
S1130E60621F739FB00DA11D621F839FA00D611DA2
S1130E70221F749F3327A00D611D231F849F600DC3
S1130E80211D822F762F6A2F11249F5750409AF0EC
S1130E90F1F088234AF0EE0FFF1FBB1F661F771F78
S1130EA0881F91505040A9F79E3F510580F00C9443
S1130EB0AB060C94F6065F3FE4F3983ED4F38695B4
S1130EC077956795B795F795E7959F5FC1F7FE2BE3
S1130ED0880F911D9695879597F90895A29FB00163
S1130EE0B39FC001A39F700D811D1124911DB29F5A
S1110EF0700D811D1124911D0895F894FFCFFB
S1130EFE4368617267696E67204F6E202020202040
S1130F0E00215365742063656C6C20636F756E7479
S1130F1E21004368617267696E67204F464600463A
S1130F2E697273742073746F702074686520200066
S1130F3E4368617267696E6700315320426174744D
S1130F4E657279206D6F646520003253204261749E
S1130F5E74657279206D6F6465200033532042618D
S1130F6E7474657279206D6F646520004D656E75BD
S1130F7E2D00204D6F64653A206B657931005374F2
S1130F8E6172743A206B65793200426174746572D1
S1130F9E790042617474657279206E6F742020201A
S1130FAE202000636F6E6E656374656420202020BC
S1130FBE2020200044616D61676564204261747471
S1130FCE65727920004368617267696E67204F46C7
S1130FDE4620004343204D6F6465004356204D6FF9
S1130FEE6465004261747465727920636861726726
S1130FFE6564200047657474696E67205265616488
S113100E7900562020006D412020004261747465E1
S109101E7279313100007B
S9030227D3
